{
  "contractName": "HelloWorld",
  "abi": [
    {
      "constant": false,
      "inputs": [
        {
          "name": "_newGreeting",
          "type": "string"
        }
      ],
      "name": "setGreeting",
      "outputs": [],
      "payable": false,
      "stateMutability": "nonpayable",
      "type": "function"
    },
    {
      "constant": true,
      "inputs": [],
      "name": "greeting",
      "outputs": [
        {
          "name": "",
          "type": "string"
        }
      ],
      "payable": false,
      "stateMutability": "view",
      "type": "function"
    },
    {
      "constant": true,
      "inputs": [],
      "name": "getGreeting",
      "outputs": [
        {
          "name": "",
          "type": "string"
        }
      ],
      "payable": false,
      "stateMutability": "view",
      "type": "function"
    },
    {
      "inputs": [],
      "payable": false,
      "stateMutability": "nonpayable",
      "type": "constructor"
    }
  ],
  "bytecode": "0x6060604052341561000f57600080fd5b606060405190810160405280602e81526020017f48656c6c6f2c20576f6c7264212054686973206973206d79206669727374207381526020017f6d61727420636f6e74726163742100000000000000000000000000000000000081525060009080519060200190610081929190610087565b5061012c565b828054600181600116156101000203166002900490600052602060002090601f016020900481019282601f106100c857805160ff19168380011785556100f6565b828001600101855582156100f6579182015b828111156100f55782518255916020019190600101906100da565b5b5090506101039190610107565b5090565b61012991905b8082111561012557600081600090555060010161010d565b5090565b90565b61041a8061013b6000396000f300606060405260043610610057576000357c0100000000000000000000000000000000000000000000000000000000900463ffffffff168063a41368621461005c578063ef690cc0146100b9578063fe50cc7214610147575b600080fd5b341561006757600080fd5b6100b7600480803590602001908201803590602001908080601f016020809104026020016040519081016040528093929190818152602001838380828437820191505050505050919050506101d5565b005b34156100c457600080fd5b6100cc6101ef565b6040518080602001828103825283818151815260200191508051906020019080838360005b8381101561010c5780820151818401526020810190506100f1565b50505050905090810190601f1680156101395780820380516001836020036101000a031916815260200191505b509250505060405180910390f35b341561015257600080fd5b61015a61028d565b6040518080602001828103825283818151815260200191508051906020019080838360005b8381101561019a57808201518184015260208101905061017f565b50505050905090810190601f1680156101c75780820380516001836020036101000a031916815260200191505b509250505060405180910390f35b80600090805190602001906101eb929190610335565b5050565b60008054600181600116156101000203166002900480601f0160208091040260200160405190810160405280929190818152602001828054600181600116156101000203166002900480156102855780601f1061025a57610100808354040283529160200191610285565b820191906000526020600020905b81548152906001019060200180831161026857829003601f168201915b505050505081565b6102956103b5565b60008054600181600116156101000203166002900480601f01602080910402602001604051908101604052809291908181526020018280546001816001161561010002031660029004801561032b5780601f106103005761010080835404028352916020019161032b565b820191906000526020600020905b81548152906001019060200180831161030e57829003601f168201915b5050505050905090565b828054600181600116156101000203166002900490600052602060002090601f016020900481019282601f1061037657805160ff19168380011785556103a4565b828001600101855582156103a4579182015b828111156103a3578251825591602001919060010190610388565b5b5090506103b191906103c9565b5090565b602060405190810160405280600081525090565b6103eb91905b808211156103e75760008160009055506001016103cf565b5090565b905600a165627a7a723058201e42338b6691725f4ebfebfb83b91a33e8535e01c0efdfb99d345445fde1151d0029",
  "source": "pragma solidity ^0.4.20;\n\ncontract HelloWorld {\n    // Declare global variable\n    string public greeting;\n\n    // This is constructor that will only be called once during deployment\n    function HelloWorld () public {\n        greeting = \"Hello, Wolrd! This is my first smart contract!\";\n    }\n\n    // a setGreeting function to set the variable \"greeting\" to a new message.\n    function setGreeting (string _newGreeting) public {\n        greeting = _newGreeting;\n    }\n\n    // a redundent getGreeting function which returns the variable state\n    // since greeting is a public variable, upon contract deployment, a getter function will be\n    // automatically created and used for querying the state of the variable.\n    function getGreeting ()\n        public\n        constant\n        returns (string){\n        return greeting;\n    }\n}\n",
  "sourcePath": "/home/alex/Desktop/dev/blockchain@ntu/workshops/2018-04/contracts/HelloWorld.sol",
  "compiler": {
    "name": "solc",
    "version": "0.4.21+commit.dfe3193c.Emscripten.clang"
  },
  "schemaVersion": "1.0.1",
  "updatedAt": "2018-04-11T06:04:36.172Z"
}